{
  "_format": "hh-sol-artifact-1",
  "contractName": "ERC20Token",
  "sourceName": "src/contracts/CreateERC20.sol",
  "abi": [
    {
      "inputs": [],
      "stateMutability": "nonpayable",
      "type": "constructor"
    },
    {
      "inputs": [
        {
          "internalType": "address",
          "name": "",
          "type": "address"
        }
      ],
      "name": "balances",
      "outputs": [
        {
          "internalType": "uint256",
          "name": "",
          "type": "uint256"
        }
      ],
      "stateMutability": "view",
      "type": "function"
    },
    {
      "inputs": [
        {
          "internalType": "address payable",
          "name": "receiver",
          "type": "address"
        }
      ],
      "name": "burn",
      "outputs": [],
      "stateMutability": "nonpayable",
      "type": "function"
    },
    {
      "inputs": [],
      "name": "mint",
      "outputs": [],
      "stateMutability": "payable",
      "type": "function"
    },
    {
      "inputs": [],
      "name": "minter",
      "outputs": [
        {
          "internalType": "address",
          "name": "",
          "type": "address"
        }
      ],
      "stateMutability": "view",
      "type": "function"
    },
    {
      "inputs": [
        {
          "internalType": "bytes32",
          "name": "_ethSignedMessageHash",
          "type": "bytes32"
        },
        {
          "internalType": "bytes",
          "name": "_signature",
          "type": "bytes"
        }
      ],
      "name": "recoverSigner",
      "outputs": [
        {
          "internalType": "address",
          "name": "",
          "type": "address"
        }
      ],
      "stateMutability": "pure",
      "type": "function"
    },
    {
      "inputs": [
        {
          "internalType": "bytes",
          "name": "sig",
          "type": "bytes"
        }
      ],
      "name": "splitSignature",
      "outputs": [
        {
          "internalType": "bytes32",
          "name": "r",
          "type": "bytes32"
        },
        {
          "internalType": "bytes32",
          "name": "s",
          "type": "bytes32"
        },
        {
          "internalType": "uint8",
          "name": "v",
          "type": "uint8"
        }
      ],
      "stateMutability": "pure",
      "type": "function"
    },
    {
      "inputs": [],
      "name": "totalSupply",
      "outputs": [
        {
          "internalType": "uint256",
          "name": "",
          "type": "uint256"
        }
      ],
      "stateMutability": "view",
      "type": "function"
    },
    {
      "inputs": [
        {
          "internalType": "address",
          "name": "receiver",
          "type": "address"
        },
        {
          "internalType": "uint256",
          "name": "amount",
          "type": "uint256"
        }
      ],
      "name": "transfer",
      "outputs": [],
      "stateMutability": "nonpayable",
      "type": "function"
    },
    {
      "inputs": [
        {
          "internalType": "address",
          "name": "sender",
          "type": "address"
        },
        {
          "internalType": "address",
          "name": "receiver",
          "type": "address"
        },
        {
          "internalType": "uint256",
          "name": "amount",
          "type": "uint256"
        }
      ],
      "name": "transferBlock",
      "outputs": [],
      "stateMutability": "nonpayable",
      "type": "function"
    },
    {
      "inputs": [
        {
          "internalType": "address",
          "name": "sender",
          "type": "address"
        },
        {
          "internalType": "address",
          "name": "receiver",
          "type": "address"
        },
        {
          "internalType": "uint256",
          "name": "amount",
          "type": "uint256"
        },
        {
          "internalType": "bytes",
          "name": "sig",
          "type": "bytes"
        }
      ],
      "name": "transferFrom",
      "outputs": [],
      "stateMutability": "nonpayable",
      "type": "function"
    },
    {
      "inputs": [
        {
          "internalType": "address",
          "name": "",
          "type": "address"
        }
      ],
      "name": "whiteList",
      "outputs": [
        {
          "internalType": "address",
          "name": "",
          "type": "address"
        }
      ],
      "stateMutability": "view",
      "type": "function"
    }
  ],
  "bytecode": "0x608060405234801561001057600080fd5b50336000806101000a81548173ffffffffffffffffffffffffffffffffffffffff021916908373ffffffffffffffffffffffffffffffffffffffff16021790555061119d806100606000396000f3fe60806040526004361061009c5760003560e01c80636f200ce3116100645780636f200ce31461017b57806389afcb44146101a457806397aba7f9146101cd578063a7bb58031461020a578063a9059cbb14610249578063ab67aa58146102725761009c565b806307546172146100a15780631249c58b146100cc57806318160ddd146100d657806327e235e314610101578063372c12b11461013e575b600080fd5b3480156100ad57600080fd5b506100b661029b565b6040516100c39190610cc1565b60405180910390f35b6100d46102bf565b005b3480156100e257600080fd5b506100eb610344565b6040516100f89190610e0c565b60405180910390f35b34801561010d57600080fd5b50610128600480360381019061012391906109b9565b61034a565b6040516101359190610e0c565b60405180910390f35b34801561014a57600080fd5b50610165600480360381019061016091906109b9565b610362565b6040516101729190610cc1565b60405180910390f35b34801561018757600080fd5b506101a2600480360381019061019d9190610a0b565b610395565b005b3480156101b057600080fd5b506101cb60048036038101906101c691906109e2565b610492565b005b3480156101d957600080fd5b506101f460048036038101906101ef9190610b11565b610590565b6040516102019190610cc1565b60405180910390f35b34801561021657600080fd5b50610231600480360381019061022c9190610b65565b6105ff565b60405161024093929190610d2e565b60405180910390f35b34801561025557600080fd5b50610270600480360381019061026b9190610ad5565b610667565b005b34801561027e57600080fd5b5061029960048036038101906102949190610a5a565b610676565b005b60008054906101000a900473ffffffffffffffffffffffffffffffffffffffff1681565b60003414156102cd57600080fd5b600034905080600160003373ffffffffffffffffffffffffffffffffffffffff1673ffffffffffffffffffffffffffffffffffffffff16815260200190815260200160002060008282546103219190610eb5565b92505081905550806004600082825461033a9190610eb5565b9250508190555050565b60045481565b60016020528060005260406000206000915090505481565b60026020528060005260406000206000915054906101000a900473ffffffffffffffffffffffffffffffffffffffff1681565b600160008473ffffffffffffffffffffffffffffffffffffffff1673ffffffffffffffffffffffffffffffffffffffff168152602001908152602001600020548111156103e157600080fd5b80600160008573ffffffffffffffffffffffffffffffffffffffff1673ffffffffffffffffffffffffffffffffffffffff16815260200190815260200160002060008282546104309190610f0b565b9250508190555080600160008473ffffffffffffffffffffffffffffffffffffffff1673ffffffffffffffffffffffffffffffffffffffff16815260200190815260200160002060008282546104869190610eb5565b92505081905550505050565b6000600160008373ffffffffffffffffffffffffffffffffffffffff1673ffffffffffffffffffffffffffffffffffffffff1681526020019081526020016000205490508173ffffffffffffffffffffffffffffffffffffffff166108fc829081150290604051600060405180830381858888f1935050505015801561051c573d6000803e3d6000fd5b5080600160008473ffffffffffffffffffffffffffffffffffffffff1673ffffffffffffffffffffffffffffffffffffffff168152602001908152602001600020600082825461056c9190610f0b565b9250508190555080600460008282546105859190610f0b565b925050819055505050565b60008060008061059f856105ff565b925092509250600186828585604051600081526020016040526040516105c89493929190610d65565b6020604051602081039080840390855afa1580156105ea573d6000803e3d6000fd5b50505060206040510351935050505092915050565b60008060006041845114610648576040517f08c379a000000000000000000000000000000000000000000000000000000000815260040161063f90610dec565b60405180910390fd5b6020840151925060408401519150606084015160001a90509193909250565b610672338383610395565b5050565b61067f81610772565b60006106b484843060405160200161069993929190610cdc565b6040516020818303038152906040528051906020012061080b565b90506106e98484306040516020016106ce93929190610cdc565b6040516020818303038152906040528051906020012061083b565b8473ffffffffffffffffffffffffffffffffffffffff1661070a8284610590565b73ffffffffffffffffffffffffffffffffffffffff1614610760576040517f08c379a000000000000000000000000000000000000000000000000000000000815260040161075790610dcc565b60405180910390fd5b61076b858585610395565b5050505050565b610808816040516024016107869190610daa565b6040516020818303038152906040527f0be77f56000000000000000000000000000000000000000000000000000000007bffffffffffffffffffffffffffffffffffffffffffffffffffffffff19166020820180517bffffffffffffffffffffffffffffffffffffffffffffffffffffffff83818316178352505050506108d4565b50565b60008160405160200161081e9190610c9b565b604051602081830303815290604052805190602001209050919050565b6108d18160405160240161084f9190610d13565b6040516020818303038152906040527f27b7cf85000000000000000000000000000000000000000000000000000000007bffffffffffffffffffffffffffffffffffffffffffffffffffffffff19166020820180517bffffffffffffffffffffffffffffffffffffffffffffffffffffffff83818316178352505050506108d4565b50565b60008151905060006a636f6e736f6c652e6c6f679050602083016000808483855afa5050505050565b600061091061090b84610e4c565b610e27565b90508281526020810184848401111561092857600080fd5b610933848285610fa4565b509392505050565b60008135905061094a8161110b565b92915050565b60008135905061095f81611122565b92915050565b60008135905061097481611139565b92915050565b600082601f83011261098b57600080fd5b813561099b8482602086016108fd565b91505092915050565b6000813590506109b381611150565b92915050565b6000602082840312156109cb57600080fd5b60006109d98482850161093b565b91505092915050565b6000602082840312156109f457600080fd5b6000610a0284828501610950565b91505092915050565b600080600060608486031215610a2057600080fd5b6000610a2e8682870161093b565b9350506020610a3f8682870161093b565b9250506040610a50868287016109a4565b9150509250925092565b60008060008060808587031215610a7057600080fd5b6000610a7e8782880161093b565b9450506020610a8f8782880161093b565b9350506040610aa0878288016109a4565b925050606085013567ffffffffffffffff811115610abd57600080fd5b610ac98782880161097a565b91505092959194509250565b60008060408385031215610ae857600080fd5b6000610af68582860161093b565b9250506020610b07858286016109a4565b9150509250929050565b60008060408385031215610b2457600080fd5b6000610b3285828601610965565b925050602083013567ffffffffffffffff811115610b4f57600080fd5b610b5b8582860161097a565b9150509250929050565b600060208284031215610b7757600080fd5b600082013567ffffffffffffffff811115610b9157600080fd5b610b9d8482850161097a565b91505092915050565b610baf81610f3f565b82525050565b610bbe81610f63565b82525050565b610bd5610bd082610f63565b611017565b82525050565b6000610be682610e7d565b610bf08185610e88565b9350610c00818560208601610fb3565b610c098161107f565b840191505092915050565b6000610c21601c83610eaa565b9150610c2c82611090565b601c82019050919050565b6000610c44600f83610e99565b9150610c4f826110b9565b602082019050919050565b6000610c67601883610e99565b9150610c72826110e2565b602082019050919050565b610c8681610f8d565b82525050565b610c9581610f97565b82525050565b6000610ca682610c14565b9150610cb28284610bc4565b60208201915081905092915050565b6000602082019050610cd66000830184610ba6565b92915050565b6000606082019050610cf16000830186610ba6565b610cfe6020830185610c7d565b610d0b6040830184610ba6565b949350505050565b6000602082019050610d286000830184610bb5565b92915050565b6000606082019050610d436000830186610bb5565b610d506020830185610bb5565b610d5d6040830184610c8c565b949350505050565b6000608082019050610d7a6000830187610bb5565b610d876020830186610c8c565b610d946040830185610bb5565b610da16060830184610bb5565b95945050505050565b60006020820190508181036000830152610dc48184610bdb565b905092915050565b60006020820190508181036000830152610de581610c37565b9050919050565b60006020820190508181036000830152610e0581610c5a565b9050919050565b6000602082019050610e216000830184610c7d565b92915050565b6000610e31610e42565b9050610e3d8282610fe6565b919050565b6000604051905090565b600067ffffffffffffffff821115610e6757610e66611050565b5b610e708261107f565b9050602081019050919050565b600081519050919050565b600082825260208201905092915050565b600082825260208201905092915050565b600081905092915050565b6000610ec082610f8d565b9150610ecb83610f8d565b9250827fffffffffffffffffffffffffffffffffffffffffffffffffffffffffffffffff03821115610f0057610eff611021565b5b828201905092915050565b6000610f1682610f8d565b9150610f2183610f8d565b925082821015610f3457610f33611021565b5b828203905092915050565b6000610f4a82610f6d565b9050919050565b6000610f5c82610f6d565b9050919050565b6000819050919050565b600073ffffffffffffffffffffffffffffffffffffffff82169050919050565b6000819050919050565b600060ff82169050919050565b82818337600083830152505050565b60005b83811015610fd1578082015181840152602081019050610fb6565b83811115610fe0576000848401525b50505050565b610fef8261107f565b810181811067ffffffffffffffff8211171561100e5761100d611050565b5b80604052505050565b6000819050919050565b7f4e487b7100000000000000000000000000000000000000000000000000000000600052601160045260246000fd5b7f4e487b7100000000000000000000000000000000000000000000000000000000600052604160045260246000fd5b6000601f19601f8301169050919050565b7f19457468657265756d205369676e6564204d6573736167653a0a333200000000600082015250565b7f57726f6e67207369676e61747572650000000000000000000000000000000000600082015250565b7f696e76616c6964207369676e6174757265206c656e6774680000000000000000600082015250565b61111481610f3f565b811461111f57600080fd5b50565b61112b81610f51565b811461113657600080fd5b50565b61114281610f63565b811461114d57600080fd5b50565b61115981610f8d565b811461116457600080fd5b5056fea2646970667358221220e7eae35d3165a9ed13c86a1ae6334cedf32c89aff65e19ff4f05870f3d1f37c364736f6c63430008040033",
  "linkReferences": {},
  "deployedLinkReferences": {}
}