{
  "_format": "hh-sol-artifact-1",
  "contractName": "ERC20Token",
  "sourceName": "src/contracts/CreateERC20.sol",
  "abi": [
    {
      "inputs": [],
      "stateMutability": "nonpayable",
      "type": "constructor"
    },
    {
      "inputs": [
        {
          "internalType": "address",
          "name": "",
          "type": "address"
        }
      ],
      "name": "balances",
      "outputs": [
        {
          "internalType": "uint256",
          "name": "",
          "type": "uint256"
        }
      ],
      "stateMutability": "view",
      "type": "function"
    },
    {
      "inputs": [
        {
          "internalType": "address payable",
          "name": "receiver",
          "type": "address"
        }
      ],
      "name": "burn",
      "outputs": [],
      "stateMutability": "nonpayable",
      "type": "function"
    },
    {
      "inputs": [],
      "name": "mint",
      "outputs": [],
      "stateMutability": "payable",
      "type": "function"
    },
    {
      "inputs": [],
      "name": "minter",
      "outputs": [
        {
          "internalType": "address",
          "name": "",
          "type": "address"
        }
      ],
      "stateMutability": "view",
      "type": "function"
    },
    {
      "inputs": [],
      "name": "totalSupply",
      "outputs": [
        {
          "internalType": "uint256",
          "name": "",
          "type": "uint256"
        }
      ],
      "stateMutability": "view",
      "type": "function"
    },
    {
      "inputs": [
        {
          "internalType": "address",
          "name": "receiver",
          "type": "address"
        },
        {
          "internalType": "uint256",
          "name": "amount",
          "type": "uint256"
        }
      ],
      "name": "transfer",
      "outputs": [],
      "stateMutability": "nonpayable",
      "type": "function"
    },
    {
      "inputs": [
        {
          "internalType": "address",
          "name": "sender",
          "type": "address"
        },
        {
          "internalType": "address",
          "name": "receiver",
          "type": "address"
        },
        {
          "internalType": "uint256",
          "name": "amount",
          "type": "uint256"
        }
      ],
      "name": "transferBlock",
      "outputs": [],
      "stateMutability": "nonpayable",
      "type": "function"
    },
    {
      "inputs": [
        {
          "internalType": "address",
          "name": "sender",
          "type": "address"
        },
        {
          "internalType": "address",
          "name": "receiver",
          "type": "address"
        },
        {
          "internalType": "uint256",
          "name": "amount",
          "type": "uint256"
        },
        {
          "internalType": "bytes",
          "name": "sig",
          "type": "bytes"
        }
      ],
      "name": "transferFrom",
      "outputs": [],
      "stateMutability": "nonpayable",
      "type": "function"
    },
    {
      "inputs": [
        {
          "internalType": "address",
          "name": "",
          "type": "address"
        }
      ],
      "name": "whiteList",
      "outputs": [
        {
          "internalType": "address",
          "name": "",
          "type": "address"
        }
      ],
      "stateMutability": "view",
      "type": "function"
    }
  ],
  "bytecode": "0x608060405234801561001057600080fd5b50336000806101000a81548173ffffffffffffffffffffffffffffffffffffffff021916908373ffffffffffffffffffffffffffffffffffffffff160217905550610ce8806100606000396000f3fe6080604052600436106100865760003560e01c8063372c12b111610059578063372c12b1146101285780636f200ce31461016557806389afcb441461018e578063a9059cbb146101b7578063ab67aa58146101e057610086565b8063075461721461008b5780631249c58b146100b657806318160ddd146100c057806327e235e3146100eb575b600080fd5b34801561009757600080fd5b506100a0610209565b6040516100ad9190610985565b60405180910390f35b6100be61022d565b005b3480156100cc57600080fd5b506100d56102b2565b6040516100e291906109e5565b60405180910390f35b3480156100f757600080fd5b50610112600480360381019061010d9190610726565b6102b8565b60405161011f91906109e5565b60405180910390f35b34801561013457600080fd5b5061014f600480360381019061014a9190610726565b6102d0565b60405161015c9190610985565b60405180910390f35b34801561017157600080fd5b5061018c60048036038101906101879190610778565b610303565b005b34801561019a57600080fd5b506101b560048036038101906101b0919061074f565b610400565b005b3480156101c357600080fd5b506101de60048036038101906101d99190610842565b6104fe565b005b3480156101ec57600080fd5b50610207600480360381019061020291906107c7565b61050d565b005b60008054906101000a900473ffffffffffffffffffffffffffffffffffffffff1681565b600034141561023b57600080fd5b600034905080600160003373ffffffffffffffffffffffffffffffffffffffff1673ffffffffffffffffffffffffffffffffffffffff168152602001908152602001600020600082825461028f9190610a61565b9250508190555080600460008282546102a89190610a61565b9250508190555050565b60045481565b60016020528060005260406000206000915090505481565b60026020528060005260406000206000915054906101000a900473ffffffffffffffffffffffffffffffffffffffff1681565b600160008473ffffffffffffffffffffffffffffffffffffffff1673ffffffffffffffffffffffffffffffffffffffff1681526020019081526020016000205481111561034f57600080fd5b80600160008573ffffffffffffffffffffffffffffffffffffffff1673ffffffffffffffffffffffffffffffffffffffff168152602001908152602001600020600082825461039e9190610ab7565b9250508190555080600160008473ffffffffffffffffffffffffffffffffffffffff1673ffffffffffffffffffffffffffffffffffffffff16815260200190815260200160002060008282546103f49190610a61565b92505081905550505050565b6000600160008373ffffffffffffffffffffffffffffffffffffffff1673ffffffffffffffffffffffffffffffffffffffff1681526020019081526020016000205490508173ffffffffffffffffffffffffffffffffffffffff166108fc829081150290604051600060405180830381858888f1935050505015801561048a573d6000803e3d6000fd5b5080600160008473ffffffffffffffffffffffffffffffffffffffff1673ffffffffffffffffffffffffffffffffffffffff16815260200190815260200160002060008282546104da9190610ab7565b9250508190555080600460008282546104f39190610ab7565b925050819055505050565b610509338383610303565b5050565b600061054284843060405160200161052793929190610922565b60405160208183030381529060405280519060200120610597565b90508473ffffffffffffffffffffffffffffffffffffffff1661056582846105c7565b73ffffffffffffffffffffffffffffffffffffffff161461058557600080fd5b610590858585610303565b5050505050565b6000816040516020016105aa919061095f565b604051602081830303815290604052805190602001209050919050565b6000806000806105d68561063c565b8093508194508295505050506001868484846040516000815260200160405260405161060594939291906109a0565b6020604051602081039080840390855afa158015610627573d6000803e3d6000fd5b50505060206040510351935050505092915050565b6000806000604184511461064f57600080fd5b60008060006020870151925060408701519150606087015160001a90508083839550955095505050509193909250565b600061069261068d84610a25565b610a00565b9050828152602081018484840111156106aa57600080fd5b6106b5848285610b50565b509392505050565b6000813590506106cc81610c6d565b92915050565b6000813590506106e181610c84565b92915050565b600082601f8301126106f857600080fd5b813561070884826020860161067f565b91505092915050565b60008135905061072081610c9b565b92915050565b60006020828403121561073857600080fd5b6000610746848285016106bd565b91505092915050565b60006020828403121561076157600080fd5b600061076f848285016106d2565b91505092915050565b60008060006060848603121561078d57600080fd5b600061079b868287016106bd565b93505060206107ac868287016106bd565b92505060406107bd86828701610711565b9150509250925092565b600080600080608085870312156107dd57600080fd5b60006107eb878288016106bd565b94505060206107fc878288016106bd565b935050604061080d87828801610711565b925050606085013567ffffffffffffffff81111561082a57600080fd5b610836878288016106e7565b91505092959194509250565b6000806040838503121561085557600080fd5b6000610863858286016106bd565b925050602061087485828601610711565b9150509250929050565b61088781610aeb565b82525050565b61089e61089982610aeb565b610b90565b82525050565b6108ad81610b0f565b82525050565b6108c46108bf82610b0f565b610ba2565b82525050565b60006108d7601c83610a56565b91506108e282610c44565b601c82019050919050565b6108f681610b39565b82525050565b61090d61090882610b39565b610bbe565b82525050565b61091c81610b43565b82525050565b600061092e828661088d565b60148201915061093e82856108fc565b60208201915061094e828461088d565b601482019150819050949350505050565b600061096a826108ca565b915061097682846108b3565b60208201915081905092915050565b600060208201905061099a600083018461087e565b92915050565b60006080820190506109b560008301876108a4565b6109c26020830186610913565b6109cf60408301856108a4565b6109dc60608301846108a4565b95945050505050565b60006020820190506109fa60008301846108ed565b92915050565b6000610a0a610a1b565b9050610a168282610b5f565b919050565b6000604051905090565b600067ffffffffffffffff821115610a4057610a3f610bf7565b5b610a4982610c26565b9050602081019050919050565b600081905092915050565b6000610a6c82610b39565b9150610a7783610b39565b9250827fffffffffffffffffffffffffffffffffffffffffffffffffffffffffffffffff03821115610aac57610aab610bc8565b5b828201905092915050565b6000610ac282610b39565b9150610acd83610b39565b925082821015610ae057610adf610bc8565b5b828203905092915050565b6000610af682610b19565b9050919050565b6000610b0882610b19565b9050919050565b6000819050919050565b600073ffffffffffffffffffffffffffffffffffffffff82169050919050565b6000819050919050565b600060ff82169050919050565b82818337600083830152505050565b610b6882610c26565b810181811067ffffffffffffffff82111715610b8757610b86610bf7565b5b80604052505050565b6000610b9b82610bac565b9050919050565b6000819050919050565b6000610bb782610c37565b9050919050565b6000819050919050565b7f4e487b7100000000000000000000000000000000000000000000000000000000600052601160045260246000fd5b7f4e487b7100000000000000000000000000000000000000000000000000000000600052604160045260246000fd5b6000601f19601f8301169050919050565b60008160601b9050919050565b7f19457468657265756d205369676e6564204d6573736167653a0a333200000000600082015250565b610c7681610aeb565b8114610c8157600080fd5b50565b610c8d81610afd565b8114610c9857600080fd5b50565b610ca481610b39565b8114610caf57600080fd5b5056fea2646970667358221220aee386528f4b3a45fa1e97ed522abfbf3934d015c7ea12d96d5f4b7977d003f064736f6c63430008040033",
  "linkReferences": {},
  "deployedLinkReferences": {}
}