{
  "_format": "hh-sol-artifact-1",
  "contractName": "ERC20Token",
  "sourceName": "src/contracts/CreateERC20.sol",
  "abi": [
    {
      "inputs": [],
      "stateMutability": "nonpayable",
      "type": "constructor"
    },
    {
      "inputs": [
        {
          "internalType": "address",
          "name": "whiteAddress",
          "type": "address"
        }
      ],
      "name": "approve",
      "outputs": [],
      "stateMutability": "nonpayable",
      "type": "function"
    },
    {
      "inputs": [
        {
          "internalType": "address",
          "name": "",
          "type": "address"
        }
      ],
      "name": "balances",
      "outputs": [
        {
          "internalType": "uint256",
          "name": "",
          "type": "uint256"
        }
      ],
      "stateMutability": "view",
      "type": "function"
    },
    {
      "inputs": [
        {
          "internalType": "address payable",
          "name": "receiver",
          "type": "address"
        }
      ],
      "name": "burn",
      "outputs": [],
      "stateMutability": "nonpayable",
      "type": "function"
    },
    {
      "inputs": [],
      "name": "mint",
      "outputs": [],
      "stateMutability": "payable",
      "type": "function"
    },
    {
      "inputs": [],
      "name": "minter",
      "outputs": [
        {
          "internalType": "address",
          "name": "",
          "type": "address"
        }
      ],
      "stateMutability": "view",
      "type": "function"
    },
    {
      "inputs": [],
      "name": "totalSupply",
      "outputs": [
        {
          "internalType": "uint256",
          "name": "",
          "type": "uint256"
        }
      ],
      "stateMutability": "view",
      "type": "function"
    },
    {
      "inputs": [
        {
          "internalType": "address",
          "name": "receiver",
          "type": "address"
        },
        {
          "internalType": "uint256",
          "name": "amount",
          "type": "uint256"
        }
      ],
      "name": "transfer",
      "outputs": [],
      "stateMutability": "nonpayable",
      "type": "function"
    },
    {
      "inputs": [
        {
          "internalType": "address",
          "name": "sender",
          "type": "address"
        },
        {
          "internalType": "address",
          "name": "receiver",
          "type": "address"
        },
        {
          "internalType": "uint256",
          "name": "amount",
          "type": "uint256"
        }
      ],
      "name": "transferBlock",
      "outputs": [],
      "stateMutability": "nonpayable",
      "type": "function"
    },
    {
      "inputs": [
        {
          "internalType": "address",
          "name": "sender",
          "type": "address"
        },
        {
          "internalType": "address",
          "name": "receiver",
          "type": "address"
        },
        {
          "internalType": "uint256",
          "name": "amount",
          "type": "uint256"
        }
      ],
      "name": "transferFrom",
      "outputs": [],
      "stateMutability": "nonpayable",
      "type": "function"
    },
    {
      "inputs": [
        {
          "internalType": "address",
          "name": "",
          "type": "address"
        }
      ],
      "name": "whiteList",
      "outputs": [
        {
          "internalType": "address",
          "name": "",
          "type": "address"
        }
      ],
      "stateMutability": "view",
      "type": "function"
    }
  ],
  "bytecode": "0x608060405234801561001057600080fd5b50336000806101000a81548173ffffffffffffffffffffffffffffffffffffffff021916908373ffffffffffffffffffffffffffffffffffffffff16021790555061095b806100606000396000f3fe6080604052600436106100915760003560e01c8063372c12b111610059578063372c12b11461015c5780636f200ce31461019957806389afcb44146101c2578063a9059cbb146101eb578063daea85c51461021457610091565b806307546172146100965780631249c58b146100c157806318160ddd146100cb57806323b872dd146100f657806327e235e31461011f575b600080fd5b3480156100a257600080fd5b506100ab61023d565b6040516100b891906107a3565b60405180910390f35b6100c9610261565b005b3480156100d757600080fd5b506100e06102e6565b6040516100ed91906107be565b60405180910390f35b34801561010257600080fd5b5061011d600480360381019061011891906106fa565b6102ec565b005b34801561012b57600080fd5b50610146600480360381019061014191906106a8565b610393565b60405161015391906107be565b60405180910390f35b34801561016857600080fd5b50610183600480360381019061017e91906106a8565b6103ab565b60405161019091906107a3565b60405180910390f35b3480156101a557600080fd5b506101c060048036038101906101bb91906106fa565b6103de565b005b3480156101ce57600080fd5b506101e960048036038101906101e491906106d1565b6104db565b005b3480156101f757600080fd5b50610212600480360381019061020d9190610749565b6105d9565b005b34801561022057600080fd5b5061023b600480360381019061023691906106a8565b6105e8565b005b60008054906101000a900473ffffffffffffffffffffffffffffffffffffffff1681565b600034141561026f57600080fd5b600034905080600160003373ffffffffffffffffffffffffffffffffffffffff1673ffffffffffffffffffffffffffffffffffffffff16815260200190815260200160002060008282546102c391906107d9565b9250508190555080600360008282546102dc91906107d9565b9250508190555050565b60035481565b3373ffffffffffffffffffffffffffffffffffffffff16600260008573ffffffffffffffffffffffffffffffffffffffff1673ffffffffffffffffffffffffffffffffffffffff16815260200190815260200160002060009054906101000a900473ffffffffffffffffffffffffffffffffffffffff1673ffffffffffffffffffffffffffffffffffffffff161461038357600080fd5b61038e8383836103de565b505050565b60016020528060005260406000206000915090505481565b60026020528060005260406000206000915054906101000a900473ffffffffffffffffffffffffffffffffffffffff1681565b600160008473ffffffffffffffffffffffffffffffffffffffff1673ffffffffffffffffffffffffffffffffffffffff1681526020019081526020016000205481111561042a57600080fd5b80600160008573ffffffffffffffffffffffffffffffffffffffff1673ffffffffffffffffffffffffffffffffffffffff1681526020019081526020016000206000828254610479919061082f565b9250508190555080600160008473ffffffffffffffffffffffffffffffffffffffff1673ffffffffffffffffffffffffffffffffffffffff16815260200190815260200160002060008282546104cf91906107d9565b92505081905550505050565b6000600160008373ffffffffffffffffffffffffffffffffffffffff1673ffffffffffffffffffffffffffffffffffffffff1681526020019081526020016000205490508173ffffffffffffffffffffffffffffffffffffffff166108fc829081150290604051600060405180830381858888f19350505050158015610565573d6000803e3d6000fd5b5080600160008473ffffffffffffffffffffffffffffffffffffffff1673ffffffffffffffffffffffffffffffffffffffff16815260200190815260200160002060008282546105b5919061082f565b9250508190555080600360008282546105ce919061082f565b925050819055505050565b6105e43383836103de565b5050565b80600260003373ffffffffffffffffffffffffffffffffffffffff1673ffffffffffffffffffffffffffffffffffffffff16815260200190815260200160002060006101000a81548173ffffffffffffffffffffffffffffffffffffffff021916908373ffffffffffffffffffffffffffffffffffffffff16021790555050565b600081359050610678816108e0565b92915050565b60008135905061068d816108f7565b92915050565b6000813590506106a28161090e565b92915050565b6000602082840312156106ba57600080fd5b60006106c884828501610669565b91505092915050565b6000602082840312156106e357600080fd5b60006106f18482850161067e565b91505092915050565b60008060006060848603121561070f57600080fd5b600061071d86828701610669565b935050602061072e86828701610669565b925050604061073f86828701610693565b9150509250925092565b6000806040838503121561075c57600080fd5b600061076a85828601610669565b925050602061077b85828601610693565b9150509250929050565b61078e81610863565b82525050565b61079d816108a7565b82525050565b60006020820190506107b86000830184610785565b92915050565b60006020820190506107d36000830184610794565b92915050565b60006107e4826108a7565b91506107ef836108a7565b9250827fffffffffffffffffffffffffffffffffffffffffffffffffffffffffffffffff03821115610824576108236108b1565b5b828201905092915050565b600061083a826108a7565b9150610845836108a7565b925082821015610858576108576108b1565b5b828203905092915050565b600061086e82610887565b9050919050565b600061088082610887565b9050919050565b600073ffffffffffffffffffffffffffffffffffffffff82169050919050565b6000819050919050565b7f4e487b7100000000000000000000000000000000000000000000000000000000600052601160045260246000fd5b6108e981610863565b81146108f457600080fd5b50565b61090081610875565b811461090b57600080fd5b50565b610917816108a7565b811461092257600080fd5b5056fea2646970667358221220af56820ff9ca2bf654b4da77393f3c8e35df8309cf9d3fffc9dde7246fba36d064736f6c63430008040033",
  "linkReferences": {},
  "deployedLinkReferences": {}
}