{
  "_format": "hh-sol-artifact-1",
  "contractName": "ERC20Token",
  "sourceName": "src/contracts/CreateERC20.sol",
  "abi": [
    {
      "inputs": [],
      "stateMutability": "nonpayable",
      "type": "constructor"
    },
    {
      "inputs": [
        {
          "internalType": "address",
          "name": "",
          "type": "address"
        }
      ],
      "name": "balances",
      "outputs": [
        {
          "internalType": "uint256",
          "name": "",
          "type": "uint256"
        }
      ],
      "stateMutability": "view",
      "type": "function"
    },
    {
      "inputs": [
        {
          "internalType": "address payable",
          "name": "receiver",
          "type": "address"
        }
      ],
      "name": "burn",
      "outputs": [],
      "stateMutability": "nonpayable",
      "type": "function"
    },
    {
      "inputs": [
        {
          "internalType": "address",
          "name": "receiver",
          "type": "address"
        }
      ],
      "name": "mint",
      "outputs": [],
      "stateMutability": "payable",
      "type": "function"
    },
    {
      "inputs": [],
      "name": "minter",
      "outputs": [
        {
          "internalType": "address",
          "name": "",
          "type": "address"
        }
      ],
      "stateMutability": "view",
      "type": "function"
    }
  ],
  "bytecode": "0x608060405234801561001057600080fd5b50336000806101000a81548173ffffffffffffffffffffffffffffffffffffffff021916908373ffffffffffffffffffffffffffffffffffffffff1602179055506103fa806100606000396000f3fe60806040526004361061003f5760003560e01c8063075461721461004457806327e235e31461006f5780636a627842146100ac57806389afcb44146100c8575b600080fd5b34801561005057600080fd5b506100596100f1565b6040516100669190610312565b60405180910390f35b34801561007b57600080fd5b50610096600480360381019061009191906102a2565b610115565b6040516100a3919061032d565b60405180910390f35b6100c660048036038101906100c191906102a2565b61012d565b005b3480156100d457600080fd5b506100ef60048036038101906100ea91906102cb565b6101e0565b005b60008054906101000a900473ffffffffffffffffffffffffffffffffffffffff1681565b60016020528060005260406000206000915090505481565b600034141561013b57600080fd5b60008054906101000a900473ffffffffffffffffffffffffffffffffffffffff1673ffffffffffffffffffffffffffffffffffffffff163373ffffffffffffffffffffffffffffffffffffffff161461019357600080fd5b600034905080600160008473ffffffffffffffffffffffffffffffffffffffff1673ffffffffffffffffffffffffffffffffffffffff168152602001908152602001600020819055505050565b6000600160008373ffffffffffffffffffffffffffffffffffffffff1673ffffffffffffffffffffffffffffffffffffffff16815260200190815260200160002054141561022d57600080fd5b8073ffffffffffffffffffffffffffffffffffffffff166108fc60649081150290604051600060405180830381858888f19350505050158015610274573d6000803e3d6000fd5b5050565b60008135905061028781610396565b92915050565b60008135905061029c816103ad565b92915050565b6000602082840312156102b457600080fd5b60006102c284828501610278565b91505092915050565b6000602082840312156102dd57600080fd5b60006102eb8482850161028d565b91505092915050565b6102fd81610348565b82525050565b61030c8161038c565b82525050565b600060208201905061032760008301846102f4565b92915050565b60006020820190506103426000830184610303565b92915050565b60006103538261036c565b9050919050565b60006103658261036c565b9050919050565b600073ffffffffffffffffffffffffffffffffffffffff82169050919050565b6000819050919050565b61039f81610348565b81146103aa57600080fd5b50565b6103b68161035a565b81146103c157600080fd5b5056fea2646970667358221220970eef41d878ec4af029614087421b60fb6dff086511852fdd114b8d2301eb5c64736f6c63430008040033",
  "linkReferences": {},
  "deployedLinkReferences": {}
}