{
  "_format": "hh-sol-artifact-1",
  "contractName": "ERC20Token",
  "sourceName": "src/contracts/CreateERC20.sol",
  "abi": [
    {
      "inputs": [],
      "stateMutability": "nonpayable",
      "type": "constructor"
    },
    {
      "inputs": [
        {
          "internalType": "address",
          "name": "",
          "type": "address"
        }
      ],
      "name": "balances",
      "outputs": [
        {
          "internalType": "uint256",
          "name": "",
          "type": "uint256"
        }
      ],
      "stateMutability": "view",
      "type": "function"
    },
    {
      "inputs": [
        {
          "internalType": "address payable",
          "name": "receiver",
          "type": "address"
        }
      ],
      "name": "burn",
      "outputs": [],
      "stateMutability": "nonpayable",
      "type": "function"
    },
    {
      "inputs": [
        {
          "internalType": "address",
          "name": "receiver",
          "type": "address"
        }
      ],
      "name": "mint",
      "outputs": [],
      "stateMutability": "payable",
      "type": "function"
    },
    {
      "inputs": [],
      "name": "minter",
      "outputs": [
        {
          "internalType": "address",
          "name": "",
          "type": "address"
        }
      ],
      "stateMutability": "view",
      "type": "function"
    },
    {
      "inputs": [
        {
          "internalType": "address",
          "name": "receiver",
          "type": "address"
        },
        {
          "internalType": "uint256",
          "name": "amount",
          "type": "uint256"
        }
      ],
      "name": "transfer",
      "outputs": [],
      "stateMutability": "nonpayable",
      "type": "function"
    },
    {
      "inputs": [
        {
          "internalType": "address",
          "name": "receiver",
          "type": "address"
        }
      ],
      "name": "transferFrom",
      "outputs": [],
      "stateMutability": "payable",
      "type": "function"
    }
  ],
  "bytecode": "0x608060405234801561001057600080fd5b50336000806101000a81548173ffffffffffffffffffffffffffffffffffffffff021916908373ffffffffffffffffffffffffffffffffffffffff1602179055506106f4806100606000396000f3fe6080604052600436106100555760003560e01c8063075461721461005a57806327e235e3146100855780636a627842146100c257806389afcb44146100de578063a9059cbb14610107578063e475949314610130575b600080fd5b34801561006657600080fd5b5061006f61014c565b60405161007c919061053c565b60405180910390f35b34801561009157600080fd5b506100ac60048036038101906100a79190610490565b610170565b6040516100b99190610557565b60405180910390f35b6100dc60048036038101906100d79190610490565b610188565b005b3480156100ea57600080fd5b50610105600480360381019061010091906104b9565b61024d565b005b34801561011357600080fd5b5061012e600480360381019061012991906104e2565b6102dc565b005b61014a60048036038101906101459190610490565b61038c565b005b60008054906101000a900473ffffffffffffffffffffffffffffffffffffffff1681565b60016020528060005260406000206000915090505481565b600034141561019657600080fd5b60008054906101000a900473ffffffffffffffffffffffffffffffffffffffff1673ffffffffffffffffffffffffffffffffffffffff163373ffffffffffffffffffffffffffffffffffffffff16146101ee57600080fd5b600034905080600160008473ffffffffffffffffffffffffffffffffffffffff1673ffffffffffffffffffffffffffffffffffffffff16815260200190815260200160002060008282546102429190610572565b925050819055505050565b6000600160008373ffffffffffffffffffffffffffffffffffffffff1673ffffffffffffffffffffffffffffffffffffffff1681526020019081526020016000205490508173ffffffffffffffffffffffffffffffffffffffff166108fc829081150290604051600060405180830381858888f193505050501580156102d7573d6000803e3d6000fd5b505050565b80600160003373ffffffffffffffffffffffffffffffffffffffff1673ffffffffffffffffffffffffffffffffffffffff168152602001908152602001600020600082825461032b91906105c8565b9250508190555080600160008473ffffffffffffffffffffffffffffffffffffffff1673ffffffffffffffffffffffffffffffffffffffff16815260200190815260200160002060008282546103819190610572565b925050819055505050565b600034141561039a57600080fd5b60008054906101000a900473ffffffffffffffffffffffffffffffffffffffff1673ffffffffffffffffffffffffffffffffffffffff163373ffffffffffffffffffffffffffffffffffffffff16146103f257600080fd5b600034905080600160008473ffffffffffffffffffffffffffffffffffffffff1673ffffffffffffffffffffffffffffffffffffffff16815260200190815260200160002060008282546104469190610572565b925050819055505050565b60008135905061046081610679565b92915050565b60008135905061047581610690565b92915050565b60008135905061048a816106a7565b92915050565b6000602082840312156104a257600080fd5b60006104b084828501610451565b91505092915050565b6000602082840312156104cb57600080fd5b60006104d984828501610466565b91505092915050565b600080604083850312156104f557600080fd5b600061050385828601610451565b92505060206105148582860161047b565b9150509250929050565b610527816105fc565b82525050565b61053681610640565b82525050565b6000602082019050610551600083018461051e565b92915050565b600060208201905061056c600083018461052d565b92915050565b600061057d82610640565b915061058883610640565b9250827fffffffffffffffffffffffffffffffffffffffffffffffffffffffffffffffff038211156105bd576105bc61064a565b5b828201905092915050565b60006105d382610640565b91506105de83610640565b9250828210156105f1576105f061064a565b5b828203905092915050565b600061060782610620565b9050919050565b600061061982610620565b9050919050565b600073ffffffffffffffffffffffffffffffffffffffff82169050919050565b6000819050919050565b7f4e487b7100000000000000000000000000000000000000000000000000000000600052601160045260246000fd5b610682816105fc565b811461068d57600080fd5b50565b6106998161060e565b81146106a457600080fd5b50565b6106b081610640565b81146106bb57600080fd5b5056fea2646970667358221220cc23d05ae547703b747b190c96b34a8166b5142340424b9ad16f95def363225e64736f6c63430008040033",
  "linkReferences": {},
  "deployedLinkReferences": {}
}