{
  "_format": "hh-sol-artifact-1",
  "contractName": "ERC20Token",
  "sourceName": "src/contracts/CreateERC20.sol",
  "abi": [
    {
      "inputs": [],
      "stateMutability": "nonpayable",
      "type": "constructor"
    },
    {
      "inputs": [
        {
          "internalType": "address",
          "name": "",
          "type": "address"
        }
      ],
      "name": "balances",
      "outputs": [
        {
          "internalType": "uint256",
          "name": "",
          "type": "uint256"
        }
      ],
      "stateMutability": "view",
      "type": "function"
    },
    {
      "inputs": [
        {
          "internalType": "address payable",
          "name": "receiver",
          "type": "address"
        }
      ],
      "name": "burn",
      "outputs": [],
      "stateMutability": "nonpayable",
      "type": "function"
    },
    {
      "inputs": [],
      "name": "mint",
      "outputs": [],
      "stateMutability": "payable",
      "type": "function"
    },
    {
      "inputs": [],
      "name": "minter",
      "outputs": [
        {
          "internalType": "address",
          "name": "",
          "type": "address"
        }
      ],
      "stateMutability": "view",
      "type": "function"
    },
    {
      "inputs": [
        {
          "internalType": "bytes32",
          "name": "_ethSignedMessageHash",
          "type": "bytes32"
        },
        {
          "internalType": "bytes",
          "name": "_signature",
          "type": "bytes"
        }
      ],
      "name": "recoverSigner",
      "outputs": [
        {
          "internalType": "address",
          "name": "",
          "type": "address"
        }
      ],
      "stateMutability": "pure",
      "type": "function"
    },
    {
      "inputs": [
        {
          "internalType": "bytes",
          "name": "sig",
          "type": "bytes"
        }
      ],
      "name": "splitSignature",
      "outputs": [
        {
          "internalType": "bytes32",
          "name": "r",
          "type": "bytes32"
        },
        {
          "internalType": "bytes32",
          "name": "s",
          "type": "bytes32"
        },
        {
          "internalType": "uint8",
          "name": "v",
          "type": "uint8"
        }
      ],
      "stateMutability": "pure",
      "type": "function"
    },
    {
      "inputs": [],
      "name": "totalSupply",
      "outputs": [
        {
          "internalType": "uint256",
          "name": "",
          "type": "uint256"
        }
      ],
      "stateMutability": "view",
      "type": "function"
    },
    {
      "inputs": [
        {
          "internalType": "address",
          "name": "receiver",
          "type": "address"
        },
        {
          "internalType": "uint256",
          "name": "amount",
          "type": "uint256"
        }
      ],
      "name": "transfer",
      "outputs": [],
      "stateMutability": "nonpayable",
      "type": "function"
    },
    {
      "inputs": [
        {
          "internalType": "address",
          "name": "sender",
          "type": "address"
        },
        {
          "internalType": "address",
          "name": "receiver",
          "type": "address"
        },
        {
          "internalType": "uint256",
          "name": "amount",
          "type": "uint256"
        }
      ],
      "name": "transferBlock",
      "outputs": [],
      "stateMutability": "nonpayable",
      "type": "function"
    },
    {
      "inputs": [
        {
          "internalType": "address",
          "name": "sender",
          "type": "address"
        },
        {
          "internalType": "address",
          "name": "receiver",
          "type": "address"
        },
        {
          "internalType": "uint256",
          "name": "amount",
          "type": "uint256"
        },
        {
          "internalType": "bytes",
          "name": "sig",
          "type": "bytes"
        }
      ],
      "name": "transferFrom",
      "outputs": [],
      "stateMutability": "nonpayable",
      "type": "function"
    },
    {
      "inputs": [
        {
          "internalType": "address",
          "name": "",
          "type": "address"
        }
      ],
      "name": "whiteList",
      "outputs": [
        {
          "internalType": "address",
          "name": "",
          "type": "address"
        }
      ],
      "stateMutability": "view",
      "type": "function"
    }
  ],
  "bytecode": "0x608060405234801561001057600080fd5b50336000806101000a81548173ffffffffffffffffffffffffffffffffffffffff021916908373ffffffffffffffffffffffffffffffffffffffff160217905550611400806100606000396000f3fe60806040526004361061009c5760003560e01c80636f200ce3116100645780636f200ce31461017b57806389afcb44146101a457806397aba7f9146101cd578063a7bb58031461020a578063a9059cbb14610249578063ab67aa58146102725761009c565b806307546172146100a15780631249c58b146100cc57806318160ddd146100d657806327e235e314610101578063372c12b11461013e575b600080fd5b3480156100ad57600080fd5b506100b661029b565b6040516100c39190610ec7565b60405180910390f35b6100d46102bf565b005b3480156100e257600080fd5b506100eb610344565b6040516100f89190611064565b60405180910390f35b34801561010d57600080fd5b5061012860048036038101906101239190610b86565b61034a565b6040516101359190611064565b60405180910390f35b34801561014a57600080fd5b5061016560048036038101906101609190610b86565b610362565b6040516101729190610ec7565b60405180910390f35b34801561018757600080fd5b506101a2600480360381019061019d9190610bd8565b610395565b005b3480156101b057600080fd5b506101cb60048036038101906101c69190610baf565b610492565b005b3480156101d957600080fd5b506101f460048036038101906101ef9190610cde565b610590565b6040516102019190610ec7565b60405180910390f35b34801561021657600080fd5b50610231600480360381019061022c9190610d32565b6105ff565b60405161024093929190610f34565b60405180910390f35b34801561025557600080fd5b50610270600480360381019061026b9190610ca2565b610667565b005b34801561027e57600080fd5b5061029960048036038101906102949190610c27565b610676565b005b60008054906101000a900473ffffffffffffffffffffffffffffffffffffffff1681565b60003414156102cd57600080fd5b600034905080600160003373ffffffffffffffffffffffffffffffffffffffff1673ffffffffffffffffffffffffffffffffffffffff16815260200190815260200160002060008282546103219190611118565b92505081905550806004600082825461033a9190611118565b9250508190555050565b60045481565b60016020528060005260406000206000915090505481565b60026020528060005260406000206000915054906101000a900473ffffffffffffffffffffffffffffffffffffffff1681565b600160008473ffffffffffffffffffffffffffffffffffffffff1673ffffffffffffffffffffffffffffffffffffffff168152602001908152602001600020548111156103e157600080fd5b80600160008573ffffffffffffffffffffffffffffffffffffffff1673ffffffffffffffffffffffffffffffffffffffff1681526020019081526020016000206000828254610430919061116e565b9250508190555080600160008473ffffffffffffffffffffffffffffffffffffffff1673ffffffffffffffffffffffffffffffffffffffff16815260200190815260200160002060008282546104869190611118565b92505081905550505050565b6000600160008373ffffffffffffffffffffffffffffffffffffffff1673ffffffffffffffffffffffffffffffffffffffff1681526020019081526020016000205490508173ffffffffffffffffffffffffffffffffffffffff166108fc829081150290604051600060405180830381858888f1935050505015801561051c573d6000803e3d6000fd5b5080600160008473ffffffffffffffffffffffffffffffffffffffff1673ffffffffffffffffffffffffffffffffffffffff168152602001908152602001600020600082825461056c919061116e565b925050819055508060046000828254610585919061116e565b925050819055505050565b60008060008061059f856105ff565b925092509250600186828585604051600081526020016040526040516105c89493929190610f6b565b6020604051602081039080840390855afa1580156105ea573d6000803e3d6000fd5b50505060206040510351935050505092915050565b60008060006041845114610648576040517f08c379a000000000000000000000000000000000000000000000000000000000815260040161063f90611044565b60405180910390fd5b6020840151925060408401519150606084015160001a90509193909250565b610672338383610395565b5050565b61067f8161080a565b6106be6040518060400160405280600781526020017f73656e6465723a00000000000000000000000000000000000000000000000000815250856108a3565b60003383306040516020016106d593929190610ee2565b60405160208183030381529060405280519060200120905061072b6040518060400160405280600881526020017f6d6573736167653a00000000000000000000000000000000000000000000000081525061093f565b610734816109d8565b600061074861074283610a71565b84610590565b90506107896040518060400160405280600a81526020017f7265636f76657265643a00000000000000000000000000000000000000000000815250826108a3565b8573ffffffffffffffffffffffffffffffffffffffff168173ffffffffffffffffffffffffffffffffffffffff16146107f7576040517f08c379a00000000000000000000000000000000000000000000000000000000081526004016107ee90611024565b60405180910390fd5b610802868686610395565b505050505050565b6108a08160405160240161081e9190610fb0565b6040516020818303038152906040527f0be77f56000000000000000000000000000000000000000000000000000000007bffffffffffffffffffffffffffffffffffffffffffffffffffffffff19166020820180517bffffffffffffffffffffffffffffffffffffffffffffffffffffffff8381831617835250505050610aa1565b50565b61093b82826040516024016108b9929190610ff4565b6040516020818303038152906040527f319af333000000000000000000000000000000000000000000000000000000007bffffffffffffffffffffffffffffffffffffffffffffffffffffffff19166020820180517bffffffffffffffffffffffffffffffffffffffffffffffffffffffff8381831617835250505050610aa1565b5050565b6109d5816040516024016109539190610fd2565b6040516020818303038152906040527f41304fac000000000000000000000000000000000000000000000000000000007bffffffffffffffffffffffffffffffffffffffffffffffffffffffff19166020820180517bffffffffffffffffffffffffffffffffffffffffffffffffffffffff8381831617835250505050610aa1565b50565b610a6e816040516024016109ec9190610f19565b6040516020818303038152906040527f27b7cf85000000000000000000000000000000000000000000000000000000007bffffffffffffffffffffffffffffffffffffffffffffffffffffffff19166020820180517bffffffffffffffffffffffffffffffffffffffffffffffffffffffff8381831617835250505050610aa1565b50565b600081604051602001610a849190610ea1565b604051602081830303815290604052805190602001209050919050565b60008151905060006a636f6e736f6c652e6c6f679050602083016000808483855afa5050505050565b6000610add610ad8846110a4565b61107f565b905082815260208101848484011115610af557600080fd5b610b00848285611207565b509392505050565b600081359050610b178161136e565b92915050565b600081359050610b2c81611385565b92915050565b600081359050610b418161139c565b92915050565b600082601f830112610b5857600080fd5b8135610b68848260208601610aca565b91505092915050565b600081359050610b80816113b3565b92915050565b600060208284031215610b9857600080fd5b6000610ba684828501610b08565b91505092915050565b600060208284031215610bc157600080fd5b6000610bcf84828501610b1d565b91505092915050565b600080600060608486031215610bed57600080fd5b6000610bfb86828701610b08565b9350506020610c0c86828701610b08565b9250506040610c1d86828701610b71565b9150509250925092565b60008060008060808587031215610c3d57600080fd5b6000610c4b87828801610b08565b9450506020610c5c87828801610b08565b9350506040610c6d87828801610b71565b925050606085013567ffffffffffffffff811115610c8a57600080fd5b610c9687828801610b47565b91505092959194509250565b60008060408385031215610cb557600080fd5b6000610cc385828601610b08565b9250506020610cd485828601610b71565b9150509250929050565b60008060408385031215610cf157600080fd5b6000610cff85828601610b32565b925050602083013567ffffffffffffffff811115610d1c57600080fd5b610d2885828601610b47565b9150509250929050565b600060208284031215610d4457600080fd5b600082013567ffffffffffffffff811115610d5e57600080fd5b610d6a84828501610b47565b91505092915050565b610d7c816111a2565b82525050565b610d8b816111c6565b82525050565b610da2610d9d826111c6565b61127a565b82525050565b6000610db3826110d5565b610dbd81856110eb565b9350610dcd818560208601611216565b610dd6816112e2565b840191505092915050565b6000610dec826110e0565b610df681856110fc565b9350610e06818560208601611216565b610e0f816112e2565b840191505092915050565b6000610e27601c836110fc565b9150610e32826112f3565b602082019050919050565b6000610e4a601c8361110d565b9150610e558261131c565b601c82019050919050565b6000610e6d6018836110fc565b9150610e7882611345565b602082019050919050565b610e8c816111f0565b82525050565b610e9b816111fa565b82525050565b6000610eac82610e3d565b9150610eb88284610d91565b60208201915081905092915050565b6000602082019050610edc6000830184610d73565b92915050565b6000606082019050610ef76000830186610d73565b610f046020830185610e83565b610f116040830184610d73565b949350505050565b6000602082019050610f2e6000830184610d82565b92915050565b6000606082019050610f496000830186610d82565b610f566020830185610d82565b610f636040830184610e92565b949350505050565b6000608082019050610f806000830187610d82565b610f8d6020830186610e92565b610f9a6040830185610d82565b610fa76060830184610d82565b95945050505050565b60006020820190508181036000830152610fca8184610da8565b905092915050565b60006020820190508181036000830152610fec8184610de1565b905092915050565b6000604082019050818103600083015261100e8185610de1565b905061101d6020830184610d73565b9392505050565b6000602082019050818103600083015261103d81610e1a565b9050919050565b6000602082019050818103600083015261105d81610e60565b9050919050565b60006020820190506110796000830184610e83565b92915050565b600061108961109a565b90506110958282611249565b919050565b6000604051905090565b600067ffffffffffffffff8211156110bf576110be6112b3565b5b6110c8826112e2565b9050602081019050919050565b600081519050919050565b600081519050919050565b600082825260208201905092915050565b600082825260208201905092915050565b600081905092915050565b6000611123826111f0565b915061112e836111f0565b9250827fffffffffffffffffffffffffffffffffffffffffffffffffffffffffffffffff0382111561116357611162611284565b5b828201905092915050565b6000611179826111f0565b9150611184836111f0565b92508282101561119757611196611284565b5b828203905092915050565b60006111ad826111d0565b9050919050565b60006111bf826111d0565b9050919050565b6000819050919050565b600073ffffffffffffffffffffffffffffffffffffffff82169050919050565b6000819050919050565b600060ff82169050919050565b82818337600083830152505050565b60005b83811015611234578082015181840152602081019050611219565b83811115611243576000848401525b50505050565b611252826112e2565b810181811067ffffffffffffffff82111715611271576112706112b3565b5b80604052505050565b6000819050919050565b7f4e487b7100000000000000000000000000000000000000000000000000000000600052601160045260246000fd5b7f4e487b7100000000000000000000000000000000000000000000000000000000600052604160045260246000fd5b6000601f19601f8301169050919050565b7f6e6f742073656e64657220617070726f7665642073656e64696e673300000000600082015250565b7f19457468657265756d205369676e6564204d6573736167653a0a333200000000600082015250565b7f696e76616c6964207369676e6174757265206c656e6774680000000000000000600082015250565b611377816111a2565b811461138257600080fd5b50565b61138e816111b4565b811461139957600080fd5b50565b6113a5816111c6565b81146113b057600080fd5b50565b6113bc816111f0565b81146113c757600080fd5b5056fea26469706673582212200e9566da13ff600cdf38ad30ccdfac2a8573836e82b335da82845af9e10c4d9a64736f6c63430008040033",
  "linkReferences": {},
  "deployedLinkReferences": {}
}