{
  "_format": "hh-sol-artifact-1",
  "contractName": "ERC20Token",
  "sourceName": "src/contracts/CreateERC20.sol",
  "abi": [
    {
      "inputs": [],
      "stateMutability": "nonpayable",
      "type": "constructor"
    },
    {
      "inputs": [
        {
          "internalType": "address",
          "name": "",
          "type": "address"
        }
      ],
      "name": "balances",
      "outputs": [
        {
          "internalType": "uint256",
          "name": "",
          "type": "uint256"
        }
      ],
      "stateMutability": "view",
      "type": "function"
    },
    {
      "inputs": [
        {
          "internalType": "address payable",
          "name": "receiver",
          "type": "address"
        }
      ],
      "name": "burn",
      "outputs": [],
      "stateMutability": "nonpayable",
      "type": "function"
    },
    {
      "inputs": [
        {
          "internalType": "address",
          "name": "receiver",
          "type": "address"
        }
      ],
      "name": "mint",
      "outputs": [],
      "stateMutability": "payable",
      "type": "function"
    },
    {
      "inputs": [],
      "name": "minter",
      "outputs": [
        {
          "internalType": "address",
          "name": "",
          "type": "address"
        }
      ],
      "stateMutability": "view",
      "type": "function"
    }
  ],
  "bytecode": "0x608060405234801561001057600080fd5b50336000806101000a81548173ffffffffffffffffffffffffffffffffffffffff021916908373ffffffffffffffffffffffffffffffffffffffff160217905550610488806100606000396000f3fe60806040526004361061003f5760003560e01c8063075461721461004457806327e235e31461006f5780636a627842146100ac57806389afcb44146100c8575b600080fd5b34801561005057600080fd5b506100596100f1565b604051610066919061031b565b60405180910390f35b34801561007b57600080fd5b50610096600480360381019061009191906102ab565b610115565b6040516100a39190610336565b60405180910390f35b6100c660048036038101906100c191906102ab565b61012d565b005b3480156100d457600080fd5b506100ef60048036038101906100ea91906102d4565b6101f2565b005b60008054906101000a900473ffffffffffffffffffffffffffffffffffffffff1681565b60016020528060005260406000206000915090505481565b600034141561013b57600080fd5b60008054906101000a900473ffffffffffffffffffffffffffffffffffffffff1673ffffffffffffffffffffffffffffffffffffffff163373ffffffffffffffffffffffffffffffffffffffff161461019357600080fd5b600034905080600160008473ffffffffffffffffffffffffffffffffffffffff1673ffffffffffffffffffffffffffffffffffffffff16815260200190815260200160002060008282546101e79190610351565b925050819055505050565b6000600160008373ffffffffffffffffffffffffffffffffffffffff1673ffffffffffffffffffffffffffffffffffffffff1681526020019081526020016000205490508173ffffffffffffffffffffffffffffffffffffffff166108fc829081150290604051600060405180830381858888f1935050505015801561027c573d6000803e3d6000fd5b505050565b60008135905061029081610424565b92915050565b6000813590506102a58161043b565b92915050565b6000602082840312156102bd57600080fd5b60006102cb84828501610281565b91505092915050565b6000602082840312156102e657600080fd5b60006102f484828501610296565b91505092915050565b610306816103a7565b82525050565b610315816103eb565b82525050565b600060208201905061033060008301846102fd565b92915050565b600060208201905061034b600083018461030c565b92915050565b600061035c826103eb565b9150610367836103eb565b9250827fffffffffffffffffffffffffffffffffffffffffffffffffffffffffffffffff0382111561039c5761039b6103f5565b5b828201905092915050565b60006103b2826103cb565b9050919050565b60006103c4826103cb565b9050919050565b600073ffffffffffffffffffffffffffffffffffffffff82169050919050565b6000819050919050565b7f4e487b7100000000000000000000000000000000000000000000000000000000600052601160045260246000fd5b61042d816103a7565b811461043857600080fd5b50565b610444816103b9565b811461044f57600080fd5b5056fea26469706673582212209fdabd7315509bc2f606fd599b11b98cda7c772bc62ebfd057e7cea8dc626e4264736f6c63430008040033",
  "linkReferences": {},
  "deployedLinkReferences": {}
}